:100000000C9472000C9493000C9493000C94930045
:100010000C9493000C9493000C9493000C94930014
:100020000C9493000C94191D0C9493000C94930061
:100030000C9493000C9493000C9493000C949300F4
:100040000C9493000C9493000C9493000C949300E4
:100050000C9493000C9493000C9493000C949300D4
:100060000C9493000C9493000C9493000C949300C4
:100070000C9493000C9493000C9493000C949300B4
:100080000C9493000C9493000C9493000C949300A4
:100090000C9493000C9493000C9493000C94930094
:1000A0000C9493000C9493000C9493000C94930084
:1000B0000C9493000C9493000C9493000C94930074
:1000C0000C9493000C9493000C94A01D0C9493003A
:1000D0000C9493000C9493000C9493000C94930054
:1000E0000C94930011241FBECFEFD1E2DEBFCDBF31
:1000F00000E00CBF13E0A0E0B2E0E6ECF9E400E0C1
:100100000BBF02C007900D92A830B107D9F713E0DA
:10011000A8E0B3E001C01D92A231B107E1F70E944F
:10012000B5020C94E1240C940000DF93CF9300D02F
:100130000F92CDB7DEB79A83898389819A819C8398
:100140008B838B819C818330910509F496C08B81D0
:100150009C818430910564F48B819C818130910570
:10016000D1F08B819C818230910509F44DC069C129
:100170008B819C818530910509F4F1C08B819C8134
:10018000853091050CF4B2C08B819C81863091053D
:1001900009F41EC156C1A2E2B0E0E2E2F0E08081C3
:1001A0008E7F8C93A2E2B0E0E2E2F0E08081826098
:1001B0008C93A2E2B0E0E2E2F0E080818B7F8C934E
:1001C000A2E2B0E0E2E2F0E08081877F8C93A2E2DD
:1001D000B0E0E2E2F0E0808180618C93A2E2B0E0E6
:1001E000E2E2F0E080818F7D8C93A2E2B0E0E2E277
:1001F000F0E080818F7B8C93A2E2B0E0E2E2F0E05D
:1002000080818F778C9355C1A2E2B0E0E2E2F0E00A
:10021000808181608C93A2E2B0E0E2E2F0E0808134
:100220008D7F8C93A2E2B0E0E2E2F0E080818B7FF0
:100230008C93A2E2B0E0E2E2F0E08081877F8C93D1
:10024000A2E2B0E0E2E2F0E080818F7E8C93A2E255
:10025000B0E0E2E2F0E0808180628C93A2E2B0E064
:10026000E2E2F0E080818F7B8C93A2E2B0E0E2E2F8
:10027000F0E080818F778C931CC1A2E2B0E0E2E2D3
:10028000F0E080818E7F8C93A2E2B0E0E2E2F0E0C9
:1002900080818D7F8C93A2E2B0E0E2E2F0E0808189
:1002A0008B7F8C93A2E2B0E0E2E2F0E08081886094
:1002B0008C93A2E2B0E0E2E2F0E080818F7E8C934A
:1002C000A2E2B0E0E2E2F0E080818F7D8C93A2E2D6
:1002D000B0E0E2E2F0E0808180648C93A2E2B0E0E2
:1002E000E2E2F0E080818F778C93E3C0A2E2B0E09D
:1002F000E2E2F0E080818E7F8C93A2E2B0E0E2E265
:10030000F0E080818D7F8C93A2E2B0E0E2E2F0E049
:10031000808184608C93A2E2B0E0E2E2F0E0808130
:10032000877F8C93A2E2B0E0E2E2F0E080818F7EF2
:100330008C93A2E2B0E0E2E2F0E080818F7D8C93CA
:10034000A2E2B0E0E2E2F0E080818F7B8C93A2E257
:10035000B0E0E2E2F0E0808180688C93AAC0A2E283
:10036000B0E0E2E2F0E0808181608C93A2E2B0E054
:10037000E2E2F0E0808182608C93A2E2B0E0E2E20F
:10038000F0E0808184608C93A2E2B0E0E2E2F0E0F1
:10039000808188608C93A2E2B0E0E2E2F0E08081AC
:1003A0008F7E8C93A2E2B0E0E2E2F0E080818F7D6C
:1003B0008C93A2E2B0E0E2E2F0E080818F7B8C934C
:1003C000A2E2B0E0E2E2F0E080818F778C9371C02E
:1003D000A2E2B0E0E2E2F0E0808181608C93A2E2F0
:1003E000B0E0E2E2F0E0808182608C93A2E2B0E0D3
:1003F000E2E2F0E0808184608C93A2E2B0E0E2E28D
:10040000F0E0808188608C93A2E2B0E0E2E2F0E06C
:10041000808180618C93A2E2B0E0E2E2F0E0808132
:1004200080628C93A2E2B0E0E2E2F0E0808180643E
:100430008C93A2E2B0E0E2E2F0E0808180688C93ED
:1004400038C0A2E2B0E0E2E2F0E080818E7F8C93DF
:10045000A2E2B0E0E2E2F0E080818D7F8C93A2E244
:10046000B0E0E2E2F0E080818B7F8C93A2E2B0E02A
:10047000E2E2F0E08081877F8C93A2E2B0E0E2E2EA
:10048000F0E080818F7E8C93A2E2B0E0E2E2F0E0C7
:1004900080818F7D8C93A2E2B0E0E2E2F0E0808187
:1004A0008F7B8C93A2E2B0E0E2E2F0E080818F7774
:1004B0008C930F900F900F900F90CF91DF91089534
:1004C000DF93CF930F920F92CDB7DEB785E090E028
:1004D0000E949500A1E2B0E0E1E2F0E0808181605D
:1004E0008C93A1E2B0E0E1E2F0E0808182608C9345
:1004F000A1E2B0E0E1E2F0E0808184608C93A1E2CF
:10050000B0E0E1E2F0E0808188608C93A1E2B0E0AD
:10051000E1E2F0E0808180618C93A1E2B0E0E1E271
:10052000F0E0808180628C93A1E2B0E0E1E2F0E053
:10053000808180648C93A1E2B0E0E1E2F0E0808110
:1005400080688C93A1E2B0E0E1E2F0E0808180611C
:100550008C930E9493090E94F31C78941A8219824A
:100560000F900F90CF91DF9108950F931F93DF931A
:10057000CF93CDB7DEB7CE59D0400FB6F894DEBFDB
:100580000FBECDBFFE01E556FF4F80E090E0A0E03A
:10059000B0E080839183A283B3830E94600281E0F4
:1005A00090E00E949500FE01E956FF4F80E090E048
:1005B000A8E4B3E480839183A283B3838E010D56B4
:1005C0001F4FFE01E956FF4F608171818281938147
:1005D00020E030E04AE755E40E94931FDC01CB01A4
:1005E000F80180839183A283B383FE01ED56FF4F10
:1005F000608171818281938120E030E040E85FE397
:100600000E949921882344F4FE01EF56FF4F81E0B8
:1006100090E09183808364C0FE01ED56FF4F6081BE
:1006200071818281938120E03FEF4FE757E40E9480
:10063000392118160CF043C0FE01E956FF4F6081C6
:1006400071818281938120E030E040E251E40E9498
:10065000931FDC01CB018E010F561F4FBC01CD0152
:100660000E94BD1DDC01CB01F801918380831FC076
:10067000FE01E157FF4F80E991E091838083FE0105
:10068000E157FF4F808191810197F1F7FE01E1571A
:10069000FF4F91838083DE01AF56BF4FFE01EF56BF
:1006A000FF4F80819181019711969C938E93FE015B
:1006B000EF56FF4F808191810097D1F627C08E01C0
:1006C0000F561F4FFE01ED56FF4F608171818281F1
:1006D00093810E94BD1DDC01CB01F80191838083D1
:1006E000DE01A357BF4FFE01EF56FF4F808191817E
:1006F0008D939C93FE01E357FF4F80819181019779
:10070000F1F7FE01E357FF4F9183808383E090E090
:100710000E949500FE01E757FF4F80E090E0A8E4BB
:10072000B3E480839183A283B3838E010B571F4F61
:10073000FE01E757FF4F608171818281938120E044
:1007400030E04AE755E40E94931FDC01CB01F80139
:1007500080839183A283B383FE01EB57FF4F6081B7
:1007600071818281938120E030E040E85FE30E9464
:100770009921882344F4FE01ED57FF4F81E090E07A
:100780009183808364C0FE01EB57FF4F60817181CC
:100790008281938120E03FEF4FE757E40E943921A7
:1007A00018160CF043C0FE01E757FF4F60817181BE
:1007B0008281938120E030E040E251E40E94931F67
:1007C000DC01CB018E010D571F4FBC01CD010E94F2
:1007D000BD1DDC01CB01F801918380831FC0FE01A8
:1007E000EF57FF4F80E991E091838083FE01EF573F
:1007F000FF4F808191810197F1F7FE01EF57FF4F85
:1008000091838083DE01AD57BF4FFE01ED57FF4F4F
:1008100080819181019711969C938E93FE01ED57F3
:10082000FF4F808191810097D1F627C08E010D572F
:100830001F4FFE01EB57FF4F6081718182819381D1
:100840000E94BD1DDC01CB01F80191838083DE0194
:10085000A158BF4FFE01ED57FF4F808191818D93CD
:100860009C93FE01E158FF4F808191810197F1F740
:10087000FE01E158FF4F9183808382E090E00E9467
:100880009500FE01E558FF4F80E090E0A8E4B3E456
:1008900080839183A283B3838E0109581F4FFE0189
:1008A000E558FF4F608171818281938120E030E0C3
:1008B0004AE755E40E94931FDC01CB01F8018083D5
:1008C0009183A283B383FE01E958FF4F6081718158
:1008D0008281938120E030E040E85FE30E9499212B
:1008E000882344F4FE01EB58FF4F81E090E09183B0
:1008F000808364C0FE01E958FF4F6081718182816D
:10090000938120E03FEF4FE757E40E94392118160A
:100910000CF043C0FE01E558FF4F60817181828178
:10092000938120E030E040E251E40E94931FDC011B
:10093000CB018E010B581F4FBC01CD010E94BD1D84
:10094000DC01CB01F801918380831FC0FE01ED58CB
:10095000FF4F80E991E091838083FE01ED58FF4FC6
:10096000808191810197F1F7FE01ED58FF4F91834E
:100970008083DE01AB58BF4FFE01EB58FF4F8081F3
:100980009181019711969C938E93FE01EB58FF4F36
:10099000808191810097D1F627C08E010B581F4F9F
:1009A000FE01E958FF4F60817181828193810E942D
:1009B000BD1DDC01CB01F80191838083DE01AF58BE
:1009C000BF4FFE01EB58FF4F808191818D939C9327
:1009D000FE01EF58FF4F808191810197F1F7FE01F1
:1009E000EF58FF4F9183808384E090E00E94950050
:1009F000FE01E359FF4F80E090E0A8E4B3E4808378
:100A00009183A283B3838E0107591F4FFE01E359DF
:100A1000FF4F608171818281938120E030E04AE75D
:100A200055E40E94931FDC01CB01F8018083918380
:100A3000A283B383FE01E759FF4F608171818281F8
:100A4000938120E030E040E85FE30E949921882311
:100A500044F4FE01E959FF4F81E090E091838083E7
:100A600064C0FE01E759FF4F6081718182819381EB
:100A700020E03FEF4FE757E40E94392118160CF0B1
:100A800043C0FE01E359FF4F6081718182819381F0
:100A900020E030E040E251E40E94931FDC01CB01F2
:100AA0008E0109591F4FBC01CD010E94BD1DDC0103
:100AB000CB01F801918380831FC0FE01EB59FF4FEA
:100AC00080E991E091838083FE01EB59FF4F8081A3
:100AD00091810197F1F7FE01EB59FF4F91838083DC
:100AE000DE01A959BF4FFE01E959FF4F8081918175
:100AF000019711969C938E93FE01E959FF4F8081D7
:100B000091810097D1F627C08E0109591F4FFE0130
:100B1000E759FF4F60817181828193810E94BD1DE1
:100B2000DC01CB01F80191838083DE01AD59BF4F19
:100B3000FE01E959FF4F808191818D939C93FE01C5
:100B4000ED59FF4F808191810197F1F7FE01ED5939
:100B5000FF4F9183808381E090E00E949500FE0129
:100B6000E15AFF4F80E090E0A8E4B3E480839183F2
:100B7000A283B3838E01055A1F4FFE01E15AFF4F36
:100B8000608171818281938120E030E04AE755E401
:100B90000E94931FDC01CB01F80180839183A28323
:100BA000B383FE01E55AFF4F608171818281938199
:100BB00020E030E040E85FE30E949921882344F47C
:100BC000FE01E75AFF4F81E090E09183808364C08B
:100BD000FE01E55AFF4F608171818281938120E09F
:100BE0003FEF4FE757E40E94392118160CF043C03D
:100BF000FE01E15AFF4F608171818281938120E083
:100C000030E040E251E40E94931FDC01CB018E01F1
:100C1000075A1F4FBC01CD010E94BD1DDC01CB0155
:100C2000F801918380831FC0FE01E95AFF4F80E9DC
:100C300091E091838083FE01E95AFF4F8081918189
:100C40000197F1F7FE01E95AFF4F91838083DE019E
:100C5000A75ABF4FFE01E75AFF4F8081918101974C
:100C600011969C938E93FE01E75AFF4F80819181EC
:100C70000097D1F627C08E01075A1F4FFE01E55A93
:100C8000FF4F60817181828193810E94BD1DDC01D3
:100C9000CB01F80191838083DE01AB5ABF4FFE0187
:100CA000E75AFF4F808191818D939C93FE01EB5A0F
:100CB000FF4F808191810197F1F7FE01EB5AFF4FC1
:100CC0009183808383E090E00E949500FE01EF5ABB
:100CD000FF4F80E090E0A8E4B3E480839183A28397
:100CE000B3838E01035B1F4FFE01EF5AFF4F6081FC
:100CF00071818281938120E030E04AE755E40E94CF
:100D0000931FDC01CB01F80180839183A283B3831D
:100D1000FE01E35BFF4F608171818281938120E05E
:100D200030E040E85FE30E949921882344F4FE010B
:100D3000E55BFF4F81E090E09183808364C0FE011A
:100D4000E35BFF4F608171818281938120E03FEFFF
:100D50004FE757E40E94392118160CF043C0FE01FA
:100D6000EF5AFF4F608171818281938120E030E0F2
:100D700040E251E40E94931FDC01CB018E01055B30
:100D80001F4FBC01CD010E94BD1DDC01CB01F8014C
:100D9000918380831FC0FE01E75BFF4F80E991E0F4
:100DA00091838083FE01E75BFF4F808191810197F2
:100DB000F1F7FE01E75BFF4F91838083DE01A55BC6
:100DC000BF4FFE01E55BFF4F808191810197119636
:100DD0009C938E93FE01E55BFF4F8081918100978C
:100DE000D1F627C08E01055B1F4FFE01E35BFF4F6D
:100DF00060817181828193810E94BD1DDC01CB01E4
:100E0000F80191838083DE01A95BBF4FFE01E55BA2
:100E1000FF4F808191818D939C93FE01E95BFF4F91
:100E2000808191810197F1F7FE01E95BFF4F91838A
:100E3000808382E090E00E949500FE01ED5BFF4F11
:100E400080E090E0A8E4B3E480839183A283B3833D
:100E50008E01015C1F4FFE01ED5BFF4F60817181D0
:100E60008281938120E030E04AE755E40E94931F9D
:100E7000DC01CB01F80180839183A283B383FE015F
:100E8000FF96608171818281938120E030E040E8AB
:100E90005FE30E94992188232CF481E090E09EAFCB
:100EA0008DAF46C0FE01FF96608171818281938182
:100EB00020E03FEF4FE757E40E943921181664F510
:100EC000FE01ED5BFF4F608171818281938120E0A3
:100ED00030E040E251E40E94931FDC01CB01BC01F1
:100EE000CD010E94BD1DDC01CB019EAF8DAF0FC0B7
:100EF00080E991E09CAF8BAF8BAD9CAD0197F1F792
:100F00009CAF8BAF8DAD9EAD01979EAF8DAF8DAD7C
:100F10009EAD009769F716C0FE01FF966081718152
:100F2000828193810E94BD1DDC01CB019EAF8DAFFC
:100F30008DAD9EAD9AAF89AF89AD9AAD0197F1F7AE
:100F40009AAF89AF84E090E00E94950080E090E045
:100F5000A8E4B3E48DAB9EABAFABB8AF6DA97EA9EF
:100F60008FA998AD20E030E04AE755E40E94931F36
:100F7000DC01CB0189AB9AABABABBCAB69A97AA95D
:100F80008BA99CA920E030E040E85FE30E94992112
:100F900088232CF481E090E098AB8FA73FC069A92B
:100FA0007AA98BA99CA920E03FEF4FE757E40E9464
:100FB000392118164CF56DA97EA98FA998AD20E0AE
:100FC00030E040E251E40E94931FDC01CB01BC0100
:100FD000CD010E94BD1DDC01CB0198AB8FA70FC0D6
:100FE00080E991E09EA78DA78DA59EA50197F1F7B9
:100FF0009EA78DA78FA598A9019798AB8FA78FA5BE
:1010000098A9009769F714C069A97AA98BA99CA926
:101010000E94BD1DDC01CB0198AB8FA78FA598A9BD
:101020009CA78BA78BA59CA50197F1F79CA78BA7E5
:1010300081E090E00E94950080E090E0A8E4B3E4B5
:101040008FA398A7A9A7BAA76FA178A589A59AA5E4
:1010500020E030E04AE755E40E94931FDC01CB0119
:101060008BA39CA3ADA3BEA36BA17CA18DA19EA1CC
:1010700020E030E040E85FE30E94992188232CF4CF
:1010800081E090E09AA389A33FC06BA17CA18DA1D0
:101090009EA120E03FEF4FE757E40E943921181648
:1010A0004CF56FA178A589A59AA520E030E040E233
:1010B00051E40E94931FDC01CB01BC01CD010E94D1
:1010C000BD1DDC01CB019AA389A30FC080E991E08B
:1010D00098A38F8F8F8D98A10197F1F798A38F8F89
:1010E00089A19AA101979AA389A389A19AA100979E
:1010F00069F714C06BA17CA18DA19EA10E94BD1DAA
:10110000DC01CB019AA389A389A19AA19E8F8D8F1F
:101110008D8D9E8D0197F1F79E8F8D8F83E090E0EE
:101120000E94950080E090E0A8E4B3E4898F9A8F54
:10113000AB8FBC8F698D7A8D8B8D9C8D20E030E0DC
:101140004AE755E40E94931FDC01CB018D8B9E8BF7
:10115000AF8BB88F6D897E898F89988D20E030E0C4
:1011600040E85FE30E94992188232CF481E090E01D
:101170009C8B8B8B3FC06D897E898F89988D20E0F9
:101180003FEF4FE757E40E94392118164CF5698D5F
:101190007A8D8B8D9C8D20E030E040E251E40E94FE
:1011A000931FDC01CB01BC01CD010E94BD1DDC0100
:1011B000CB019C8B8B8B0FC080E991E09A8B898B44
:1011C00089899A890197F1F79A8B898B8B899C89F8
:1011D00001979C8B8B8B8B899C89009769F714C036
:1011E0006D897E898F89988D0E94BD1DDC01CB01A0
:1011F0009C8B8B8B8B899C89988B8F878F8598890B
:101200000197F1F7988B8F8782E090E00E9495001C
:1012100080E090E0A8E4B3E48B879C87AD87BE872D
:101220006B857C858D859E8520E030E04AE755E41E
:101230000E94931FDC01CB018F839887A987BA870F
:101240006F81788589859A8520E030E040E85FE30A
:101250000E94992188232CF481E090E09E838D8365
:101260003FC06F81788589859A8520E03FEF4FE701
:1012700057E40E94392118164CF56B857C858D85C5
:101280009E8520E030E040E251E40E94931FDC01A3
:10129000CB01BC01CD010E94BD1DDC01CB019E83B1
:1012A0008D830FC080E991E09C838B838B819C812F
:1012B0000197F1F79C838B838D819E8101979E839B
:1012C0008D838D819E81009769F714C06F81788529
:1012D00089859A850E94BD1DDC01CB019E838D838B
:1012E0008D819E819A83898389819A810197F1F703
:1012F0009A83898384E090E00E94950008C081E091
:1013000090E00E94950080E590E00E941A1A80E02B
:1013100090E00E94D21A843191058CF786E090E02B
:101320000E949500F4CFDF93CF93CDB7DEB7A7E24D
:10133000B0E0E7E2F0E0808180688C93A7E2B0E063
:10134000E7E2F0E0808180628C93A7E2B0E0E7E220
:10135000F0E0808188608C93A7E2B0E0E7E2F0E003
:10136000808182608C93A7E2B0E0E7E2F0E08081C8
:1013700080648C93A7E2B0E0E7E2F0E080818061D6
:101380008C93A7E2B0E0E7E2F0E0808184608C9388
:10139000A7E2B0E0E7E2F0E0808181608C93AAE010
:1013A000B1E0EAE0F1E0808180688C93AAE0B1E0EE
:1013B000EAE0F1E0808180628C93AAE0B1E0EAE0AB
:1013C000F1E0808188608C93AAE0B1E0EAE0F1E08E
:1013D000808182608C93AAE0B1E0EAE0F1E0808154
:1013E00080688C93AAE0B1E0EAE0F1E0808180625D
:1013F0008C93AAE0B1E0EAE0F1E0808188608C9310
:10140000AAE0B1E0EAE0F1E0808182608C93CF91C4
:10141000DF910895DF93CF93CDB7DEB7EA970FB68C
:10142000F894DEBF0FBECDBF9EAB8DABF1C181E0A6
:1014300090E09CAB8BABE4C18BA99CA998AF8FAB20
:101440008FA998AD8430910509F487C08FA998AD14
:101450008530910594F48FA998AD8230910509F4F7
:1014600042C08FA998AD833091050CF059C08FA967
:1014700098AD81309105D1F000C18FA998AD86302B
:10148000910509F4A4C08FA998AD863091050CF49C
:1014900081C08FA998AD8730910509F4B5C08FA997
:1014A00098AD8830910509F4CCC0E7C0A8E2B0E05F
:1014B000E8E2F0E0808180688C93A8E2B0E0E8E2A6
:1014C000F0E080818F7D8C93A8E2B0E0E8E2F0E06C
:1014D0008081877F8C93A8E2B0E0E8E2F0E0808131
:1014E0008D7F8C93CAC0A8E2B0E0E8E2F0E0808192
:1014F00080688C93A8E2B0E0E8E2F0E0808180624E
:101500008C93A8E2B0E0E8E2F0E08081877F8C93E2
:10151000A8E2B0E0E8E2F0E080818D7F8C93ADC07E
:10152000A8E2B0E0E8E2F0E080818F778C93A8E257
:10153000B0E0E8E2F0E0808180628C93A8E2B0E065
:10154000E8E2F0E08081877F8C93A8E2B0E0E8E2F7
:10155000F0E080818D7F8C9390C0A8E2B0E0E8E25B
:10156000F0E080818F778C93A8E2B0E0E8E2F0E0D1
:10157000808180628C93A8E2B0E0E8E2F0E08081B4
:1015800088608C93A8E2B0E0E8E2F0E080818D7F93
:101590008C9373C0A8E2B0E0E8E2F0E080818F773E
:1015A0008C93A8E2B0E0E8E2F0E080818F7D8C933C
:1015B000A8E2B0E0E8E2F0E0808188608C93A8E2E5
:1015C000B0E0E8E2F0E080818D7F8C9356C0A8E225
:1015D000B0E0E8E2F0E080818F778C93A8E2B0E0A1
:1015E000E8E2F0E080818F7D8C93A8E2B0E0E8E251
:1015F000F0E0808188608C93A8E2B0E0E8E2F0E05F
:10160000808182608C9339C0A8E2B0E0E8E2F0E02B
:1016100080818F778C93A8E2B0E0E8E2F0E08081EF
:101620008F7D8C93A8E2B0E0E8E2F0E08081877FD4
:101630008C93A8E2B0E0E8E2F0E0808182608C93D5
:101640001CC0A8E2B0E0E8E2F0E0808180688C9302
:10165000A8E2B0E0E8E2F0E080818F7D8C93A8E220
:10166000B0E0E8E2F0E08081877F8C93A8E2B0E010
:10167000E8E2F0E0808182608C9380E090E0AFE26D
:10168000B4E48DA79EA7AFA7B8AB6DA57EA58FA527
:1016900098A92BEA3AEA4AEA50E40E94931FDC0137
:1016A000CB0189A79AA7ABA7BCA769A57AA58BA5EB
:1016B0009CA520E030E040E85FE30E949921882368
:1016C0001CF481E088A791C069A57AA58BA59CA58B
:1016D00020E030E04FE753E40E94392118160CF067
:1016E0007BC06DA57EA58FA598A920E030E04AE7D4
:1016F00054E40E948D20DC01CB018CA39DA3AEA3FA
:10170000BFA36CA17DA18EA19FA120E030E04AE79C
:1017100055E40E94931FDC01CB0188A399A3AAA3DF
:10172000BBA368A179A18AA19BA120E030E040E899
:101730005FE30E94992188232CF481E090E09F8F41
:101740008E8F3FC068A179A18AA19BA120E03FEFC5
:101750004FE757E40E94392118164CF56CA17DA182
:101760008EA19FA120E030E040E251E40E94931F4F
:10177000DC01CB01BC01CD010E94BD1DDC01CB0110
:101780009F8F8E8F0FC080E991E09D8F8C8F8C8D05
:101790009D8D0197F1F79D8F8C8F8E8D9F8D019779
:1017A0009F8F8E8F8E8D9F8D009769F724C068A1C3
:1017B00079A18AA19BA10E94BD1DDC01CB019F8F55
:1017C0008E8F8E8D9F8D9B8F8A8F8A8D9B8D01979B
:1017D000F1F79B8F8A8F0FC069A57AA58BA59CA571
:1017E0000E94BD1DDC01CB0188A788A5898F898D4A
:1017F0008A95F1F7898F8BA99CA901969CAB8BAB3D
:101800008BA99CA9883091050CF416CE1EAA1DAA9E
:101810008DA99EA98130910509F409CEF0C188E017
:1018200090E09AAB89ABE3C189A99AA99AAF89AF35
:1018300089AD9AAD8430910509F4A3C089AD9AAD04
:101840008530910594F489AD9AAD8230910509F403
:101850005EC089AD9AAD833091050CF075C089AD3D
:101860009AAD81309105B1F1FFC089AD9AAD863056
:10187000910509F4C0C089AD9AAD863091050CF48C
:101880009DC089AD9AAD8730910509F4D1C089AD6D
:101890009AAD8830910509F0E7C0A8E2B0E0E8E22F
:1018A000F0E0808180688C93A8E2B0E0E8E2F0E0AC
:1018B00080818F7D8C93A8E2B0E0E8E2F0E0808147
:1018C000877F8C93A8E2B0E0E8E2F0E080818D7F32
:1018D0008C93CAC0A8E2B0E0E8E2F0E080818068C2
:1018E0008C93A8E2B0E0E8E2F0E0808180628C9323
:1018F000A8E2B0E0E8E2F0E08081877F8C93A8E284
:10190000B0E0E8E2F0E080818D7F8C93ADC0A8E28A
:10191000B0E0E8E2F0E080818F778C93A8E2B0E05D
:10192000E8E2F0E0808180628C93A8E2B0E0E8E237
:10193000F0E08081877F8C93A8E2B0E0E8E2F0E0FD
:1019400080818D7F8C9390C0A8E2B0E0E8E2F0E067
:1019500080818F778C93A8E2B0E0E8E2F0E08081AC
:1019600080628C93A8E2B0E0E8E2F0E080818860D9
:101970008C93A8E2B0E0E8E2F0E080818D7F8C9368
:1019800073C0A8E2B0E0E8E2F0E080818F778C934A
:10199000A8E2B0E0E8E2F0E080818F7D8C93A8E2DD
:1019A000B0E0E8E2F0E0808188608C93A8E2B0E0EB
:1019B000E8E2F0E080818D7F8C9356C0A8E2B0E031
:1019C000E8E2F0E080818F778C93A8E2B0E0E8E273
:1019D000F0E080818F7D8C93A8E2B0E0E8E2F0E057
:1019E000808188608C93A8E2B0E0E8E2F0E080813A
:1019F00082608C9339C0A8E2B0E0E8E2F0E0808138
:101A00008F778C93A8E2B0E0E8E2F0E080818F7DF0
:101A10008C93A8E2B0E0E8E2F0E08081877F8C93CD
:101A2000A8E2B0E0E8E2F0E0808182608C931CC024
:101A3000A8E2B0E0E8E2F0E0808180688C93A8E260
:101A4000B0E0E8E2F0E080818F7D8C93A8E2B0E026
:101A5000E8E2F0E08081877F8C93A8E2B0E0E8E2E2
:101A6000F0E0808182608C9380E090E0AFE2B4E4AB
:101A70008D8B9E8BAF8BB88F6D897E898F89988D6A
:101A80002BEA3AEA4AEA50E40E94931FDC01CB01B8
:101A9000898B9A8BAB8BBC8B69897A898B899C8962
:101AA00020E030E040E85FE30E94992188231CF4A5
:101AB00081E0888B91C069897A898B899C8920E033
:101AC00030E04FE753E40E94392118160CF07BC038
:101AD0006D897E898F89988D20E030E04AE754E453
:101AE0000E948D20DC01CB018C879D87AE87BF874C
:101AF0006C857D858E859F8520E030E04AE755E442
:101B00000E94931FDC01CB0188879987AA87BB8736
:101B1000688579858A859B8520E030E040E85FE331
:101B20000E94992188232CF481E090E09F838E838A
:101B30003FC0688579858A859B8520E03FEF4FE728
:101B400057E40E94392118164CF56C857D858E85E9
:101B50009F8520E030E040E251E40E94931FDC01C9
:101B6000CB01BC01CD010E94BD1DDC01CB019F83D7
:101B70008E830FC080E991E09D838C838C819D8151
:101B80000197F1F79D838C838E819F8101979F83BD
:101B90008E838E819F81009769F724C0688579853F
:101BA0008A859B850E94BD1DDC01CB019F838E83AE
:101BB0008E819F819B838A838A819B810197F1F724
:101BC0009B838A830FC069897A898B899C890E944B
:101BD000BD1DDC01CB01888B8889898389818A9529
:101BE000F1F7898389A99AA901979AAB89AB89A949
:101BF0009AA9181619060CF417CE1EAA1DAA8DA9AB
:101C00009EA98230910509F40ACEEA960FB6F8949F
:101C1000DEBF0FBECDBFCF91DF910895DF93CF938D
:101C2000CDB7DEB7EA970FB6F894DEBF0FBECDBFD3
:101C30009EAB8DABF1C181E090E09CAB8BABE4C17E
:101C40008BA99CA998AF8FAB8FA998AD84309105D3
:101C500009F487C08FA998AD8530910594F48FA9B8
:101C600098AD8230910509F442C08FA998AD8330B8
:101C700091050CF059C08FA998AD81309105D1F034
:101C800000C18FA998AD8630910509F4A4C08FA931
:101C900098AD863091050CF481C08FA998AD87303E
:101CA000910509F4B5C08FA998AD8830910509F464
:101CB000CCC0E7C0A8E2B0E0E8E2F0E08081806458
:101CC0008C93A8E2B0E0E8E2F0E080818F7E8C9314
:101CD000A8E2B0E0E8E2F0E080818B7F8C93A8E29C
:101CE000B0E0E8E2F0E080818E7F8C93CAC0A8E289
:101CF000B0E0E8E2F0E0808180648C93A8E2B0E09C
:101D0000E8E2F0E0808180618C93A8E2B0E0E8E254
:101D1000F0E080818B7F8C93A8E2B0E0E8E2F0E015
:101D200080818E7F8C93ADC0A8E2B0E0E8E2F0E065
:101D300080818F7B8C93A8E2B0E0E8E2F0E08081C4
:101D400080618C93A8E2B0E0E8E2F0E080818B7FD4
:101D50008C93A8E2B0E0E8E2F0E080818E7F8C9383
:101D600090C0A8E2B0E0E8E2F0E080818F7B8C9345
:101D7000A8E2B0E0E8E2F0E0808180618C93A8E224
:101D8000B0E0E8E2F0E0808184608C93A8E2B0E00B
:101D9000E8E2F0E080818E7F8C9373C0A8E2B0E02F
:101DA000E8E2F0E080818F7B8C93A8E2B0E0E8E28B
:101DB000F0E080818F7E8C93A8E2B0E0E8E2F0E072
:101DC000808184608C93A8E2B0E0E8E2F0E080815A
:101DD0008E7F8C9356C0A8E2B0E0E8E2F0E080810C
:101DE0008F7B8C93A8E2B0E0E8E2F0E080818F7E08
:101DF0008C93A8E2B0E0E8E2F0E0808184608C930C
:101E0000A8E2B0E0E8E2F0E0808181608C9339C024
:101E1000A8E2B0E0E8E2F0E080818F7B8C93A8E25A
:101E2000B0E0E8E2F0E080818F7E8C93A8E2B0E041
:101E3000E8E2F0E080818B7F8C93A8E2B0E0E8E2FA
:101E4000F0E0808181608C931CC0A8E2B0E0E8E201
:101E5000F0E0808180648C93A8E2B0E0E8E2F0E0FA
:101E600080818F7E8C93A8E2B0E0E8E2F0E0808190
:101E70008B7F8C93A8E2B0E0E8E2F0E080818160A3
:101E80008C9380E090E0AFE2B4E48DA79EA7AFA76B
:101E9000B8AB6DA57EA58FA598A92BEA3AEA4AEAC8
:101EA00050E40E94931FDC01CB0189A79AA7ABA73E
:101EB000BCA769A57AA58BA59CA520E030E040E8E9
:101EC0005FE30E94992188231CF481E088A791C0D8
:101ED00069A57AA58BA59CA520E030E04FE753E4E7
:101EE0000E94392118160CF07BC06DA57EA58FA528
:101EF00098A920E030E04AE754E40E948D20DC01FC
:101F0000CB018CA39DA3AEA3BFA36CA17DA18EA189
:101F10009FA120E030E04AE755E40E94931FDC01D6
:101F2000CB0188A399A3AAA3BBA368A179A18AA185
:101F30009BA120E030E040E85FE30E9499218823E4
:101F40002CF481E090E09F8F8E8F3FC068A179A133
:101F50008AA19BA120E03FEF4FE757E40E9439217F
:101F600018164CF56CA17DA18EA19FA120E030E058
:101F700040E251E40E94931FDC01CB01BC01CD0182
:101F80000E94BD1DDC01CB019F8F8E8F0FC080E9A9
:101F900091E09D8F8C8F8C8D9D8D0197F1F79D8F9A
:101FA0008C8F8E8D9F8D01979F8F8E8F8E8D9F8DA5
:101FB000009769F724C068A179A18AA19BA10E941A
:101FC000BD1DDC01CB019F8F8E8F8E8D9F8D9B8FD2
:101FD0008A8F8A8D9B8D0197F1F79B8F8A8F0FC017
:101FE00069A57AA58BA59CA50E94BD1DDC01CB012E
:101FF00088A788A5898F898D8A95F1F7898F8BA904
:102000009CA901969CAB8BAB8BA99CA988309105B0
:102010000CF416CE1EAA1DAA8DA99EA98130910589
:1020200009F409CEF0C188E090E09AAB89ABE3C136
:1020300089A99AA99AAF89AF89AD9AAD84309105E3
:1020400009F4A3C089AD9AAD8530910594F489ADAA
:102050009AAD8230910509F45EC089AD9AAD8330A6
:1020600091050CF075C089AD9AAD81309105B1F143
:10207000FFC089AD9AAD8630910509F4C0C089AD25
:102080009AAD863091050CF49DC089AD9AAD87302C
:10209000910509F4D1C089AD9AAD8830910509F058
:1020A000E7C0A8E2B0E0E8E2F0E0808180648C93D1
:1020B000A8E2B0E0E8E2F0E080818F7E8C93A8E2B5
:1020C000B0E0E8E2F0E080818B7F8C93A8E2B0E0A2
:1020D000E8E2F0E080818E7F8C93CAC0A8E2B0E095
:1020E000E8E2F0E0808180648C93A8E2B0E0E8E26E
:1020F000F0E0808180618C93A8E2B0E0E8E2F0E05B
:1021000080818B7F8C93A8E2B0E0E8E2F0E08081F0
:102110008E7F8C93ADC0A8E2B0E0E8E2F0E0808171
:102120008F7B8C93A8E2B0E0E8E2F0E080818061F0
:102130008C93A8E2B0E0E8E2F0E080818B7F8C93A2
:10214000A8E2B0E0E8E2F0E080818E7F8C9390C05E
:10215000A8E2B0E0E8E2F0E080818F7B8C93A8E217
:10216000B0E0E8E2F0E0808180618C93A8E2B0E02A
:10217000E8E2F0E0808184608C93A8E2B0E0E8E2DD
:10218000F0E080818E7F8C9373C0A8E2B0E0E8E23B
:10219000F0E080818F7B8C93A8E2B0E0E8E2F0E091
:1021A00080818F7E8C93A8E2B0E0E8E2F0E080814D
:1021B00084608C93A8E2B0E0E8E2F0E080818E7F5A
:1021C0008C9356C0A8E2B0E0E8E2F0E080818F7B1B
:1021D0008C93A8E2B0E0E8E2F0E080818F7E8C93FF
:1021E000A8E2B0E0E8E2F0E0808184608C93A8E2AD
:1021F000B0E0E8E2F0E0808181608C9339C0A8E231
:10220000B0E0E8E2F0E080818F7B8C93A8E2B0E060
:10221000E8E2F0E080818F7E8C93A8E2B0E0E8E213
:10222000F0E080818B7F8C93A8E2B0E0E8E2F0E000
:10223000808181608C931CC0A8E2B0E0E8E2F0E00D
:10224000808180648C93A8E2B0E0E8E2F0E08081D5
:102250008F7E8C93A8E2B0E0E8E2F0E080818B7F93
:102260008C93A8E2B0E0E8E2F0E0808181608C939A
:1022700080E090E0AFE2B4E48D8B9E8BAF8BB88FA3
:102280006D897E898F89988D2BEA3AEA4AEA50E473
:102290000E94931FDC01CB01898B9A8BAB8BBC8B8B
:1022A00069897A898B899C8920E030E040E85FE386
:1022B0000E94992188231CF481E0888B91C0698950
:1022C0007A898B899C8920E030E04FE753E40E94B3
:1022D000392118160CF07BC06D897E898F89988D05
:1022E00020E030E04AE754E40E948D20DC01CB017D
:1022F0008C879D87AE87BF876C857D858E859F8502
:1023000020E030E04AE755E40E94931FDC01CB0156
:1023100088879987AA87BB87688579858A859B8501
:1023200020E030E040E85FE30E94992188232CF40C
:1023300081E090E09F838E833FC0688579858A85A0
:102340009B8520E03FEF4FE757E40E9439211816A4
:102350004CF56C857D858E859F8520E030E040E2E0
:1023600051E40E94931FDC01CB01BC01CD010E940E
:10237000BD1DDC01CB019F838E830FC080E991E0FE
:102380009D838C838C819D810197F1F79D838C8344
:102390008E819F8101979F838E838E819F8100977D
:1023A00069F724C0688579858A859B850E94BD1D53
:1023B000DC01CB019F838E838E819F819B838A83E7
:1023C0008A819B810197F1F79B838A830FC069897A
:1023D0007A898B899C890E94BD1DDC01CB01888B89
:1023E0008889898389818A95F1F7898389A99AA93E
:1023F00001979AAB89AB89A99AA9181619060CF40A
:1024000017CE1EAA1DAA8DA99EA98230910509F496
:102410000ACEEA960FB6F894DEBF0FBECDBFCF91BD
:10242000DF910895DF93CF93CDB7DEB7EA970FB66C
:10243000F894DEBF0FBECDBF9EAB8DABF1C181E086
:1024400090E09CAB8BABE4C18BA99CA998AF8FAB00
:102450008FA998AD8430910509F487C08FA998ADF4
:102460008530910594F48FA998AD8230910509F4D7
:1024700042C08FA998AD833091050CF059C08FA947
:1024800098AD81309105D1F000C18FA998AD86300B
:10249000910509F4A4C08FA998AD863091050CF47C
:1024A00081C08FA998AD8730910509F4B5C08FA977
:1024B00098AD8830910509F4CCC0E7C0ABE0B1E03D
:1024C000EBE0F1E0808180688C93ABE0B1E0EBE081
:1024D000F1E080818F7D8C93ABE0B1E0EBE0F1E047
:1024E0008081877F8C93ABE0B1E0EBE0F1E080810D
:1024F0008D7F8C93CAC0ABE0B1E0EBE0F1E080816E
:1025000080688C93ABE0B1E0EBE0F1E08081806229
:102510008C93ABE0B1E0EBE0F1E08081877F8C93BE
:10252000ABE0B1E0EBE0F1E080818D7F8C93ADC05A
:10253000ABE0B1E0EBE0F1E080818F778C93ABE032
:10254000B1E0EBE0F1E0808180628C93ABE0B1E040
:10255000EBE0F1E08081877F8C93ABE0B1E0EBE0D2
:10256000F1E080818D7F8C9390C0ABE0B1E0EBE037
:10257000F1E080818F778C93ABE0B1E0EBE0F1E0AC
:10258000808180628C93ABE0B1E0EBE0F1E0808190
:1025900088608C93ABE0B1E0EBE0F1E080818D7F6F
:1025A0008C9373C0ABE0B1E0EBE0F1E080818F771A
:1025B0008C93ABE0B1E0EBE0F1E080818F7D8C9318
:1025C000ABE0B1E0EBE0F1E0808188608C93ABE0C0
:1025D000B1E0EBE0F1E080818D7F8C9356C0ABE001
:1025E000B1E0EBE0F1E080818F778C93ABE0B1E07C
:1025F000EBE0F1E080818F7D8C93ABE0B1E0EBE02C
:10260000F1E0808188608C93ABE0B1E0EBE0F1E039
:10261000808182608C9339C0ABE0B1E0EBE0F1E007
:1026200080818F778C93ABE0B1E0EBE0F1E08081CB
:102630008F7D8C93ABE0B1E0EBE0F1E08081877FB0
:102640008C93ABE0B1E0EBE0F1E0808182608C93B1
:102650001CC0ABE0B1E0EBE0F1E0808180688C93DE
:10266000ABE0B1E0EBE0F1E080818F7D8C93ABE0FB
:10267000B1E0EBE0F1E08081877F8C93ABE0B1E0EB
:10268000EBE0F1E0808182608C9380E090E0AFE24B
:10269000B4E48DA79EA7AFA7B8AB6DA57EA58FA507
:1026A00098A92BEA3AEA4AEA50E40E94931FDC0117
:1026B000CB0189A79AA7ABA7BCA769A57AA58BA5CB
:1026C0009CA520E030E040E85FE30E949921882348
:1026D0001CF481E088A791C069A57AA58BA59CA56B
:1026E00020E030E04FE753E40E94392118160CF047
:1026F0007BC06DA57EA58FA598A920E030E04AE7B4
:1027000054E40E948D20DC01CB018CA39DA3AEA3D9
:10271000BFA36CA17DA18EA19FA120E030E04AE77C
:1027200055E40E94931FDC01CB0188A399A3AAA3BF
:10273000BBA368A179A18AA19BA120E030E040E879
:102740005FE30E94992188232CF481E090E09F8F21
:102750008E8F3FC068A179A18AA19BA120E03FEFA5
:102760004FE757E40E94392118164CF56CA17DA162
:102770008EA19FA120E030E040E251E40E94931F2F
:10278000DC01CB01BC01CD010E94BD1DDC01CB01F0
:102790009F8F8E8F0FC080E991E09D8F8C8F8C8DE5
:1027A0009D8D0197F1F79D8F8C8F8E8D9F8D019759
:1027B0009F8F8E8F8E8D9F8D009769F724C068A1A3
:1027C00079A18AA19BA10E94BD1DDC01CB019F8F35
:1027D0008E8F8E8D9F8D9B8F8A8F8A8D9B8D01977B
:1027E000F1F79B8F8A8F0FC069A57AA58BA59CA551
:1027F0000E94BD1DDC01CB0188A788A5898F898D2A
:102800008A95F1F7898F8BA99CA901969CAB8BAB1C
:102810008BA99CA9883091050CF416CE1EAA1DAA7E
:102820008DA99EA98130910509F409CEF0C188E0F7
:1028300090E09AAB89ABE3C189A99AA99AAF89AF15
:1028400089AD9AAD8430910509F4A3C089AD9AADE4
:102850008530910594F489AD9AAD8230910509F4E3
:102860005EC089AD9AAD833091050CF075C089AD1D
:102870009AAD81309105B1F1FFC089AD9AAD863036
:10288000910509F4C0C089AD9AAD863091050CF46C
:102890009DC089AD9AAD8730910509F4D1C089AD4D
:1028A0009AAD8830910509F0E7C0ABE0B1E0EBE00C
:1028B000F1E0808180688C93ABE0B1E0EBE0F1E087
:1028C00080818F7D8C93ABE0B1E0EBE0F1E0808123
:1028D000877F8C93ABE0B1E0EBE0F1E080818D7F0E
:1028E0008C93CAC0ABE0B1E0EBE0F1E0808180689E
:1028F0008C93ABE0B1E0EBE0F1E0808180628C93FF
:10290000ABE0B1E0EBE0F1E08081877F8C93ABE05E
:10291000B1E0EBE0F1E080818D7F8C93ADC0ABE066
:10292000B1E0EBE0F1E080818F778C93ABE0B1E038
:10293000EBE0F1E0808180628C93ABE0B1E0EBE012
:10294000F1E08081877F8C93ABE0B1E0EBE0F1E0D8
:1029500080818D7F8C9390C0ABE0B1E0EBE0F1E043
:1029600080818F778C93ABE0B1E0EBE0F1E0808188
:1029700080628C93ABE0B1E0EBE0F1E080818860B5
:102980008C93ABE0B1E0EBE0F1E080818D7F8C9344
:1029900073C0ABE0B1E0EBE0F1E080818F778C9326
:1029A000ABE0B1E0EBE0F1E080818F7D8C93ABE0B8
:1029B000B1E0EBE0F1E0808188608C93ABE0B1E0C6
:1029C000EBE0F1E080818D7F8C9356C0ABE0B1E00D
:1029D000EBE0F1E080818F778C93ABE0B1E0EBE04E
:1029E000F1E080818F7D8C93ABE0B1E0EBE0F1E032
:1029F000808188608C93ABE0B1E0EBE0F1E0808116
:102A000082608C9339C0ABE0B1E0EBE0F1E0808113
:102A10008F778C93ABE0B1E0EBE0F1E080818F7DCC
:102A20008C93ABE0B1E0EBE0F1E08081877F8C93A9
:102A3000ABE0B1E0EBE0F1E0808182608C931CC000
:102A4000ABE0B1E0EBE0F1E0808180688C93ABE03B
:102A5000B1E0EBE0F1E080818F7D8C93ABE0B1E001
:102A6000EBE0F1E08081877F8C93ABE0B1E0EBE0BD
:102A7000F1E0808182608C9380E090E0AFE2B4E48A
:102A80008D8B9E8BAF8BB88F6D897E898F89988D4A
:102A90002BEA3AEA4AEA50E40E94931FDC01CB0198
:102AA000898B9A8BAB8BBC8B69897A898B899C8942
:102AB00020E030E040E85FE30E94992188231CF485
:102AC00081E0888B91C069897A898B899C8920E013
:102AD00030E04FE753E40E94392118160CF07BC018
:102AE0006D897E898F89988D20E030E04AE754E433
:102AF0000E948D20DC01CB018C879D87AE87BF872C
:102B00006C857D858E859F8520E030E04AE755E421
:102B10000E94931FDC01CB0188879987AA87BB8716
:102B2000688579858A859B8520E030E040E85FE311
:102B30000E94992188232CF481E090E09F838E836A
:102B40003FC0688579858A859B8520E03FEF4FE708
:102B500057E40E94392118164CF56C857D858E85C9
:102B60009F8520E030E040E251E40E94931FDC01A9
:102B7000CB01BC01CD010E94BD1DDC01CB019F83B7
:102B80008E830FC080E991E09D838C838C819D8131
:102B90000197F1F79D838C838E819F8101979F839D
:102BA0008E838E819F81009769F724C0688579851F
:102BB0008A859B850E94BD1DDC01CB019F838E838E
:102BC0008E819F819B838A838A819B810197F1F704
:102BD0009B838A830FC069897A898B899C890E942B
:102BE000BD1DDC01CB01888B8889898389818A9509
:102BF000F1F7898389A99AA901979AAB89AB89A929
:102C00009AA9181619060CF417CE1EAA1DAA8DA98A
:102C10009EA98230910509F40ACEEA960FB6F8947F
:102C2000DEBF0FBECDBFCF91DF910895DF93CF936D
:102C3000CDB7DEB7EA970FB6F894DEBF0FBECDBFB3
:102C40009EAB8DABF1C181E090E09CAB8BABE4C15E
:102C50008BA99CA998AF8FAB8FA998AD84309105B3
:102C600009F487C08FA998AD8530910594F48FA998
:102C700098AD8230910509F442C08FA998AD833098
:102C800091050CF059C08FA998AD81309105D1F014
:102C900000C18FA998AD8630910509F4A4C08FA911
:102CA00098AD863091050CF481C08FA998AD87301E
:102CB000910509F4B5C08FA998AD8830910509F444
:102CC000CCC0E7C0ABE0B1E0EBE0F1E08081806434
:102CD0008C93ABE0B1E0EBE0F1E080818F7E8C93F0
:102CE000ABE0B1E0EBE0F1E080818B7F8C93ABE077
:102CF000B1E0EBE0F1E080818E7F8C93CAC0ABE065
:102D0000B1E0EBE0F1E0808180648C93ABE0B1E076
:102D1000EBE0F1E0808180618C93ABE0B1E0EBE02F
:102D2000F1E080818B7F8C93ABE0B1E0EBE0F1E0F0
:102D300080818E7F8C93ADC0ABE0B1E0EBE0F1E041
:102D400080818F7B8C93ABE0B1E0EBE0F1E08081A0
:102D500080618C93ABE0B1E0EBE0F1E080818B7FB0
:102D60008C93ABE0B1E0EBE0F1E080818E7F8C935F
:102D700090C0ABE0B1E0EBE0F1E080818F7B8C9321
:102D8000ABE0B1E0EBE0F1E0808180618C93ABE0FF
:102D9000B1E0EBE0F1E0808184608C93ABE0B1E0E6
:102DA000EBE0F1E080818E7F8C9373C0ABE0B1E00B
:102DB000EBE0F1E080818F7B8C93ABE0B1E0EBE066
:102DC000F1E080818F7E8C93ABE0B1E0EBE0F1E04D
:102DD000808184608C93ABE0B1E0EBE0F1E0808136
:102DE0008E7F8C9356C0ABE0B1E0EBE0F1E08081E8
:102DF0008F7B8C93ABE0B1E0EBE0F1E080818F7EE4
:102E00008C93ABE0B1E0EBE0F1E0808184608C93E7
:102E1000ABE0B1E0EBE0F1E0808181608C9339C000
:102E2000ABE0B1E0EBE0F1E080818F7B8C93ABE035
:102E3000B1E0EBE0F1E080818F7E8C93ABE0B1E01C
:102E4000EBE0F1E080818B7F8C93ABE0B1E0EBE0D5
:102E5000F1E0808181608C931CC0ABE0B1E0EBE0DD
:102E6000F1E0808180648C93ABE0B1E0EBE0F1E0D5
:102E700080818F7E8C93ABE0B1E0EBE0F1E080816C
:102E80008B7F8C93ABE0B1E0EBE0F1E0808181607F
:102E90008C9380E090E0AFE2B4E48DA79EA7AFA74B
:102EA000B8AB6DA57EA58FA598A92BEA3AEA4AEAA8
:102EB00050E40E94931FDC01CB0189A79AA7ABA71E
:102EC000BCA769A57AA58BA59CA520E030E040E8C9
:102ED0005FE30E94992188231CF481E088A791C0B8
:102EE00069A57AA58BA59CA520E030E04FE753E4C7
:102EF0000E94392118160CF07BC06DA57EA58FA508
:102F000098A920E030E04AE754E40E948D20DC01DB
:102F1000CB018CA39DA3AEA3BFA36CA17DA18EA169
:102F20009FA120E030E04AE755E40E94931FDC01B6
:102F3000CB0188A399A3AAA3BBA368A179A18AA165
:102F40009BA120E030E040E85FE30E9499218823C4
:102F50002CF481E090E09F8F8E8F3FC068A179A113
:102F60008AA19BA120E03FEF4FE757E40E9439215F
:102F700018164CF56CA17DA18EA19FA120E030E038
:102F800040E251E40E94931FDC01CB01BC01CD0162
:102F90000E94BD1DDC01CB019F8F8E8F0FC080E989
:102FA00091E09D8F8C8F8C8D9D8D0197F1F79D8F7A
:102FB0008C8F8E8D9F8D01979F8F8E8F8E8D9F8D85
:102FC000009769F724C068A179A18AA19BA10E94FA
:102FD000BD1DDC01CB019F8F8E8F8E8D9F8D9B8FB2
:102FE0008A8F8A8D9B8D0197F1F79B8F8A8F0FC0F7
:102FF00069A57AA58BA59CA50E94BD1DDC01CB010E
:1030000088A788A5898F898D8A95F1F7898F8BA9E3
:103010009CA901969CAB8BAB8BA99CA98830910590
:103020000CF416CE1EAA1DAA8DA99EA98130910569
:1030300009F409CEF0C188E090E09AAB89ABE3C116
:1030400089A99AA99AAF89AF89AD9AAD84309105C3
:1030500009F4A3C089AD9AAD8530910594F489AD8A
:103060009AAD8230910509F45EC089AD9AAD833086
:1030700091050CF075C089AD9AAD81309105B1F123
:10308000FFC089AD9AAD8630910509F4C0C089AD05
:103090009AAD863091050CF49DC089AD9AAD87300C
:1030A000910509F4D1C089AD9AAD8830910509F038
:1030B000E7C0ABE0B1E0EBE0F1E0808180648C93AD
:1030C000ABE0B1E0EBE0F1E080818F7E8C93ABE090
:1030D000B1E0EBE0F1E080818B7F8C93ABE0B1E07D
:1030E000EBE0F1E080818E7F8C93CAC0ABE0B1E071
:1030F000EBE0F1E0808180648C93ABE0B1E0EBE049
:10310000F1E0808180618C93ABE0B1E0EBE0F1E035
:1031100080818B7F8C93ABE0B1E0EBE0F1E08081CC
:103120008E7F8C93ADC0ABE0B1E0EBE0F1E080814D
:103130008F7B8C93ABE0B1E0EBE0F1E080818061CC
:103140008C93ABE0B1E0EBE0F1E080818B7F8C937E
:10315000ABE0B1E0EBE0F1E080818E7F8C9390C03A
:10316000ABE0B1E0EBE0F1E080818F7B8C93ABE0F2
:10317000B1E0EBE0F1E0808180618C93ABE0B1E005
:10318000EBE0F1E0808184608C93ABE0B1E0EBE0B8
:10319000F1E080818E7F8C9373C0ABE0B1E0EBE017
:1031A000F1E080818F7B8C93ABE0B1E0EBE0F1E06C
:1031B00080818F7E8C93ABE0B1E0EBE0F1E0808129
:1031C00084608C93ABE0B1E0EBE0F1E080818E7F36
:1031D0008C9356C0ABE0B1E0EBE0F1E080818F7BF7
:1031E0008C93ABE0B1E0EBE0F1E080818F7E8C93DB
:1031F000ABE0B1E0EBE0F1E0808184608C93ABE088
:10320000B1E0EBE0F1E0808181608C9339C0ABE00C
:10321000B1E0EBE0F1E080818F7B8C93ABE0B1E03B
:10322000EBE0F1E080818F7E8C93ABE0B1E0EBE0EE
:10323000F1E080818B7F8C93ABE0B1E0EBE0F1E0DB
:10324000808181608C931CC0ABE0B1E0EBE0F1E0E9
:10325000808180648C93ABE0B1E0EBE0F1E08081B1
:103260008F7E8C93ABE0B1E0EBE0F1E080818B7F6F
:103270008C93ABE0B1E0EBE0F1E0808181608C9376
:1032800080E090E0AFE2B4E48D8B9E8BAF8BB88F83
:103290006D897E898F89988D2BEA3AEA4AEA50E453
:1032A0000E94931FDC01CB01898B9A8BAB8BBC8B6B
:1032B00069897A898B899C8920E030E040E85FE366
:1032C0000E94992188231CF481E0888B91C0698930
:1032D0007A898B899C8920E030E04FE753E40E9493
:1032E000392118160CF07BC06D897E898F89988DE5
:1032F00020E030E04AE754E40E948D20DC01CB015D
:103300008C879D87AE87BF876C857D858E859F85E1
:1033100020E030E04AE755E40E94931FDC01CB0136
:1033200088879987AA87BB87688579858A859B85E1
:1033300020E030E040E85FE30E94992188232CF4EC
:1033400081E090E09F838E833FC0688579858A8580
:103350009B8520E03FEF4FE757E40E943921181684
:103360004CF56C857D858E859F8520E030E040E2C0
:1033700051E40E94931FDC01CB01BC01CD010E94EE
:10338000BD1DDC01CB019F838E830FC080E991E0DE
:103390009D838C838C819D810197F1F79D838C8324
:1033A0008E819F8101979F838E838E819F8100975D
:1033B00069F724C0688579858A859B850E94BD1D33
:1033C000DC01CB019F838E838E819F819B838A83C7
:1033D0008A819B810197F1F79B838A830FC069895A
:1033E0007A898B899C890E94BD1DDC01CB01888B69
:1033F0008889898389818A95F1F7898389A99AA91E
:1034000001979AAB89AB89A99AA9181619060CF4E9
:1034100017CE1EAA1DAA8DA99EA98230910509F476
:103420000ACEEA960FB6F894DEBF0FBECDBFCF919D
:10343000DF910895DF93CF9300D00F92CDB7DEB721
:103440009C838B831A82198215C081E090E00E94D0
:103450000A0A81E090E00E940E0E81E090E00E9456
:10346000121282E090E00E94161689819A810196DC
:103470009A83898329813A818B819C812817390716
:1034800024F30F900F900F900F90CF91DF9108953C
:10349000DF93CF9300D00F92CDB7DEB79C838B83A1
:1034A0001A82198215C082E090E00E940A0A82E026
:1034B00090E00E940E0E82E090E00E94121281E0E5
:1034C00090E00E94161689819A8101969A838983D9
:1034D00029813A818B819C812817390724F30F9029
:1034E0000F900F900F90CF91DF910895DF93CF93BE
:1034F00000D00F92CDB7DEB79C838B831A821982DE
:1035000015C081E090E00E940A0A82E090E00E94EB
:103510000E0E81E090E00E94121282E090E00E9484
:10352000161689819A8101969A83898329813A8125
:103530008B819C812817390724F30F900F900F90EF
:103540000F90CF91DF910895DF93CF9300D00F922A
:10355000CDB7DEB79C838B831A82198215C082E0B7
:1035600090E00E940A0A81E090E00E940E0E82E044
:1035700090E00E94121281E090E00E94161689816C
:103580009A8101969A83898329813A818B819C81D2
:103590002817390724F30F900F900F900F90CF91B9
:1035A000DF910895DF93CF93CDB7DEB7EA970FB6DB
:1035B000F894DEBF0FBECDBF9EAB8DAB8DA99EA98B
:1035C0009AAF89AF89AD9AAD009731F089AD9AADC8
:1035D0008130910549F00FC0EBE6F0E01082EBE698
:1035E000F0E081E0808307C0EBE6F0E01082EBE6DC
:1035F000F0E082E08083ABE2B0E0EBE2F0E08081DB
:10360000282F81E090E00DA802C0880F991F0A942E
:10361000E2F7822B8C9380E090E0A0E7B1E48DA7E5
:103620009EA7AFA7B8AB6DA57EA58FA598A92BEADD
:103630003AEA4AEA50E40E94931FDC01CB0189A7D1
:103640009AA7ABA7BCA769A57AA58BA59CA520E0E6
:1036500030E040E85FE30E94992188231CF481E078
:1036600088A791C069A57AA58BA59CA520E030E02C
:103670004FE753E40E94392118160CF07BC06DA56A
:103680007EA58FA598A920E030E04AE754E40E9487
:103690008D20DC01CB018CA39DA3AEA3BFA36CA1A5
:1036A0007DA18EA19FA120E030E04AE755E40E9471
:1036B000931FDC01CB0188A399A3AAA3BBA368A194
:1036C00079A18AA19BA120E030E040E85FE30E945D
:1036D000992188232CF481E090E09F8F8E8F3FC04A
:1036E00068A179A18AA19BA120E03FEF4FE757E4B1
:1036F0000E94392118164CF56CA17DA18EA19FA1C5
:1037000020E030E040E251E40E94931FDC01CB0155
:10371000BC01CD010E94BD1DDC01CB019F8F8E8FAE
:103720000FC080E991E09D8F8C8F8C8D9D8D0197CE
:10373000F1F79D8F8C8F8E8D9F8D01979F8F8E8F30
:103740008E8D9F8D009769F724C068A179A18AA109
:103750009BA10E94BD1DDC01CB019F8F8E8F8E8DA2
:103760009F8D9B8F8A8F8A8D9B8D0197F1F79B8F01
:103770008A8F0FC069A57AA58BA59CA50E94BD1D47
:10378000DC01CB0188A788A5898F898D8A95F1F7FF
:10379000898FABE2B0E0EBE2F0E08081282F81E09E
:1037A00090E00DA802C0880F991F0A94E2F7809557
:1037B00082238C9381E090E0909309038093080327
:1037C00080E090E0A0E7B1E48D8B9E8BAF8BB88F4B
:1037D0006D897E898F89988D2BEA3AEA4AEA50E40E
:1037E0000E94931FDC01CB01898B9A8BAB8BBC8B26
:1037F00069897A898B899C8920E030E040E85FE321
:103800000E94992188231CF481E0888B91C06989EA
:103810007A898B899C8920E030E04FE753E40E944D
:10382000392118160CF07BC06D897E898F89988D9F
:1038300020E030E04AE754E40E948D20DC01CB0117
:103840008C879D87AE87BF876C857D858E859F859C
:1038500020E030E04AE755E40E94931FDC01CB01F1
:1038600088879987AA87BB87688579858A859B859C
:1038700020E030E040E85FE30E94992188232CF4A7
:1038800081E090E09F838E833FC0688579858A853B
:103890009B8520E03FEF4FE757E40E94392118163F
:1038A0004CF56C857D858E859F8520E030E040E27B
:1038B00051E40E94931FDC01CB01BC01CD010E94A9
:1038C000BD1DDC01CB019F838E830FC080E991E099
:1038D0009D838C838C819D810197F1F79D838C83DF
:1038E0008E819F8101979F838E838E819F81009718
:1038F00069F724C0688579858A859B850E94BD1DEE
:10390000DC01CB019F838E838E819F819B838A8381
:103910008A819B810197F1F79B838A830FC0698914
:103920007A898B899C890E94BD1DDC01CB01888B23
:103930008889898389818A95F1F7898319AA1AAAC6
:103940001BAA1CAA1FC089A99AA9ABA9BCA9813628
:1039500024E0920720E0A20720E0B20740F0EBE667
:10396000F0E010828CE390E098AF8FAB31C089A972
:103970009AA9ABA9BCA90196A11DB11D89AB9AABAF
:10398000ABABBCAB80910803909109030097D9F6CB
:1039900080910C0390910D03A0910E03B0910F0341
:1039A000BC01CD010E941D22DC01CB01BC01CD0177
:1039B00020E030E048E654E40E948D20DC01CB0199
:1039C000BC01CD010E94C921DC01CB0198AF8FABB6
:1039D0008FA998ADEA960FB6F894DEBF0FBECDBFA3
:1039E000CF91DF910895DF93CF93CDB7DEB7AAE2F1
:1039F000B0E0EAE2F0E0808183608C93ABE2B0E07B
:103A0000EBE2F0E080818E7F8C93ABE2B0E0EBE202
:103A1000F0E080818D7F8C93A8E6B0E0E8E6F0E0EE
:103A2000808181608C93EBE6F0E01082CF91DF9192
:103A300008951F920F920FB60F9200905B000F92A5
:103A40001124EF92FF920F931F932F933F934F9365
:103A50005F936F937F938F939F93AF93BF93EF93F6
:103A6000FF93DF93CF93CDB7DEB780911003909192
:103A7000110381309105C9F5E1E2F1E01082E4E241
:103A8000F1E0808191817C0100E010E080910A03E7
:103A900090910B03AA2797FDA095BA2F2FEF3FEF28
:103AA00040E050E0BC01CD010E948B24DC01CB0141
:103AB0008E0D9F1DA01FB11F80930C0390930D03CB
:103AC000A0930E03B0930F03E4E2F1E011821082A1
:103AD0001092110310921003109209031092080320
:103AE00010920B0310920A0311C0A1E2B1E0E1E2CF
:103AF000F1E0808181608C93E3E7F0E081E08083F6
:103B000081E090E09093110380931003CF91DF91B7
:103B1000FF91EF91BF91AF919F918F917F916F91A5
:103B20005F914F913F912F911F910F91FF90EF90D7
:103B30000F9000925B000F900FBE0F901F90189592
:103B40001F920F920FB60F9211248F939F93DF93C2
:103B5000CF93CDB7DEB780910A0390910B03019606
:103B600090930B0380930A03CF91DF919F918F91E4
:103B70000F900FBE0F901F901895EF92FF920F932A
:103B80001F937B018C0120E030E040E05FE40E9465
:103B9000692188238CF0C801B70120E030E040E0C3
:103BA0005FE40E94351F0E94C9219B01AC01205097
:103BB00030404040504806C0C801B7010E94C921AA
:103BC0009B01AC01B901CA011F910F91FF90EF90C9
:103BD0000895A0E0B0E0EFEEFDE10C94AA24DC0132
:103BE0002B01FA019C91923008F439C1EB018881D4
:103BF000823008F433C1943069F4843009F02FC165
:103C000011969C9111978981981709F428C1A0E019
:103C1000B2E025C1843009F421C18230A9F4923088
:103C200009F01DC19A01AD0188E0EA010990AE01D9
:103C3000E90109929E018150C1F7E2018981119643
:103C40009C918923818308C1923009F407C112969F
:103C50002D903C901397EB018A819B811496AD9037
:103C6000BD90CD90DC901797EC80FD800E811F8178
:103C70009101281B390BB90137FF04C0662777274C
:103C8000621B730B603271050CF061C012161306D3
:103C90006CF537014801062E04C0969487947794FA
:103CA00067940A94D2F721E030E040E050E004C08D
:103CB000220F331F441F551F6A95D2F72150304001
:103CC000404050402E213F214023512321153105F2
:103CD0004105510521F021E030E040E050E079015C
:103CE0008A01E628F728082919293CC0232BD1F19D
:103CF000260E371E35014601062E04C09694879481
:103D0000779467940A94D2F721E030E040E050E0E5
:103D100004C0220F331F441F551F6A95D2F721504C
:103D20003040404050402A213B214C215D2121154B
:103D300031054105510521F021E030E040E050E03F
:103D400059016A01A628B728C828D9280BC08215AE
:103D500093052CF01C01AA24BB24650103C0EE24AA
:103D6000FF24870111969C91D20111968C9198178E
:103D700009F445C0992339F0A80197012A193B0994
:103D80004C095D0906C0A60195012E193F09400B9B
:103D9000510B57FD08C01182338222822483358360
:103DA000468357831DC081E0818333822282882726
:103DB0009927DC01821B930BA40BB50B848395839D
:103DC000A683B7830DC0220F331F441F551F2483C2
:103DD00035834683578382819381019793838283BE
:103DE0002481358146815781DA01C9010197A109F2
:103DF000B1098F5F9F4FAF4FBF4328F30BC0918333
:103E000033822282EA0CFB1C0C1D1D1DE482F5820C
:103E10000683178383E0808324813581468157811F
:103E200057FF1AC0C901AA2797FDA095BA2F817024
:103E30009070A070B0705695479537952795822B56
:103E4000932BA42BB52B84839583A683B783828180
:103E50009381019693838283DF0101C0D201CD015A
:103E6000CDB7DEB7E2E10C94C624A0E2B0E0EBE30C
:103E7000FFE10C94B62469837A838B839C832D8322
:103E80003E834F835887E9E0EE2EF12CEC0EFD1EA9
:103E9000CE010196B7010E94BA238E010F5E1F4F1B
:103EA000CE010596B8010E94BA238A8991E089273C
:103EB0008A8BC701B801AE01475E5F4F0E94E91DC2
:103EC0000E94E522A096E6E00C94D224A0E2B0E0A5
:103ED000ECE6FFE10C94B62469837A838B839C83A0
:103EE0002D833E834F835887F9E0EF2EF12CEC0EA3
:103EF000FD1ECE010196B7010E94BA238E010F5E0E
:103F00001F4FCE010596B8010E94BA23C701B80120
:103F1000AE01475E5F4F0E94E91D0E94E522A09618
:103F2000E6E00C94D224A0E2B0E0E9E9FFE10C94D1
:103F3000AA2469837A838B839C832D833E834F835A
:103F40005887CE010196BE01675F7F4F0E94BA235A
:103F5000CE010596BE016F5E7F4F0E94BA23998500
:103F6000923088F089898230C8F0943019F4823018
:103F700051F404C0843029F4923081F480E092E05E
:103F8000C6C0923049F420E09A858A89981321E0CE
:103F90002A87CE010996BBC0823049F420E09A8579
:103FA0008A89981321E02A8BCE014196B0C02D84D6
:103FB0003E844F8458886D887E888F88988CEE2444
:103FC000FF248701AA24BB24650140E050E060E0A3
:103FD00070E0E0E0F0E0C10181709070892BE9F0C1
:103FE000E60CF71C081D191D9A01AB012A0D3B1D9B
:103FF0004C1D5D1D80E090E0A0E0B0E0E614F70409
:104000000805190520F481E090E0A0E0B0E0BA01D5
:10401000A901480F591F6A1F7B1FAA0CBB1CCC1C8F
:10402000DD1C97FE08C081E090E0A0E0B0E0A82A87
:10403000B92ACA2ADB2A3196E032F10549F0660C2A
:10404000771C881C991C5694479437942794C3CFA7
:10405000FA85EA892B893C898B859C85280F391F35
:104060002E5F3F4F17C0CA0181709070892B61F09D
:1040700016950795F794E79480E090E0A0E0B0E80B
:10408000E82AF92A0A2B1B2B7695679557954795B1
:104090002F5F3F4F77FDE7CF0CC0440F551F661FC2
:1040A000771F17FD4160EE0CFF1C001F111F2150F0
:1040B0003040403090E0590790E0690790E479077C
:1040C00060F32B8F3C8FDB01CA018F779070A0705B
:1040D000B07080349105A105B10561F447FD0AC0B7
:1040E000E114F1040105110529F0405C5F4F6F4FA9
:1040F0007F4F40781A8EFE1711F081E08A8F4D8F26
:104100005E8F6F8F78A383E0898FCE0149960E94DE
:10411000E522A096E2E10C94C624A8E1B0E0E3E930
:10412000F0E20C94B22469837A838B839C832D8381
:104130003E834F835887B9E0EB2EF12CEC0EFD1E29
:10414000CE010196B7010E94BA238E010F5E1F4F68
:10415000CE010596B8010E94BA232985223008F4C1
:104160007EC03989323010F4B8017CC08A859A89C2
:1041700089278A87243011F0223031F4231709F07F
:104180006EC060E072E06EC0343039F41D861E8669
:104190001F86188A1C861B8604C0323021F484E0F6
:1041A0008987B7015FC02B853C858B899C89281B3B
:1041B000390B3C872B87ED84FE840F851889AD88E9
:1041C000BE88CF88D88CEA14FB040C051D0540F48A
:1041D000EE0CFF1C001F111F215030403C872B8725
:1041E00020E030E040E050E080E090E0A0E0B0E48B
:1041F00060E070E0EA14FB040C051D0540F0282B7C
:10420000392B4A2B5B2BEA18FB080C091D09B695C4
:10421000A79597958795EE0CFF1C001F111F6F5FE8
:104220007F4F6F31710531F7DA01C9018F779070D7
:10423000A070B07080349105A105B10561F427FD2F
:104240000AC0E114F1040105110529F0205C3F4F7B
:104250004F4F5F4F20782D873E874F87588BBE0189
:10426000675F7F4FCB010E94E5226896EAE00C94DD
:10427000CE24A8E1B0E0EFE3F1E20C94B624698328
:104280007A838B839C832D833E834F83588789E079
:10429000E82EF12CEC0EFD1ECE010196B7010E9416
:1042A000BA238E010F5E1F4FCE010596B8010E9402
:1042B000BA238985823040F08989823028F0C7018D
:1042C000B8010E94322401C08FEF6896E6E00C949A
:1042D000D224A8E1B0E0EFE6F1E20C94B6246983C1
:1042E0007A838B839C832D833E834F83588789E019
:1042F000E82EF12CEC0EFD1ECE010196B7010E94B6
:10430000BA238E010F5E1F4FCE010596B8010E94A1
:10431000BA238985823040F08989823028F0C7012C
:10432000B8010E94322401C08FEF6896E6E00C9439
:10433000D224A8E1B0E0EFE9F1E20C94B62469835D
:104340007A838B839C832D833E834F83588789E0B8
:10435000E82EF12CEC0EFD1ECE010196B7010E9455
:10436000BA238E010F5E1F4FCE010596B8010E9441
:10437000BA238985823040F08989823028F0C701CC
:10438000B8010E94322401C081E06896E6E00C94F6
:10439000D224ACE0B0E0EFECF1E20C94BA246983F3
:1043A0007A838B839C83CE010196BE016B5F7F4F26
:1043B0000E94BA238D81823061F1823050F18430C5
:1043C00021F48E81882351F12EC02F81388537FD4D
:1043D00020C06E812F3131051CF06623F9F023C017
:1043E0008EE190E0821B930B29853A854B855C8595
:1043F00004C056954795379527958A95D2F7662339
:10440000B1F050954095309521953F4F4F4F5F4FFC
:104410000EC020E030E040E050E009C02FEF3FEF59
:104420004FEF5FE704C020E030E040E050E8B90122
:10443000CA012C96E2E00C94D624A8E0B0E0E3E2B6
:10444000F2E20C94B2247B018C01611571058105A7
:10445000910519F482E0898360C083E089838EE14D
:10446000C82ED12CDC82CB82ED82FE820F8318878E
:10447000C801B7010E949622FC013197F7FF3BC0AB
:10448000222733272E1B3F0B57016801022E04C041
:10449000D694C794B794A7940A94D2F740E050E01A
:1044A00060E070E081E090E0A0E0B0E004C0880F40
:1044B000991FAA1FBB1F2A95D2F70197A109B1091D
:1044C0008E219F21A023B1230097A105B10521F0E2
:1044D00041E050E060E070E04A295B296C297D29C9
:1044E0004D835E836F8378878EE190E08E1B9F0BF8
:1044F0009C838B8312C0309781F00E2E04C0EE0C8B
:10450000FF1C001F111F0A94D2F7ED82FE820F8359
:104510001887CE1ADF0ADC82CB821A82CE0101967E
:104520000E94E5222896EAE00C94CE24EF92FF92B6
:104530000F931F937B018C0180E0E81680E0F80662
:1045400081E0080780E0180788F48FEFE816F1048F
:104550000105110531F028F088E090E0A0E0B0E01E
:1045600017C080E090E0A0E0B0E012C080E0E81664
:1045700080E0F80680E0080781E0180728F088E16D
:1045800090E0A0E0B0E004C080E190E0A0E0B0E006
:1045900020E230E040E050E0281B390B4A0B5B0B77
:1045A00004C016950795F794E7948A95D2F7F7011A
:1045B000E85FFD4F8081281B310941095109C9017C
:1045C0001F910F91FF90EF900895DF92EF92FF926D
:1045D0000F931F93FC01E480F58006811781D18041
:1045E0008081823048F480E090E0A0E1B0E0E82AE9
:1045F000F92A0A2B1B2BA5C0843009F49FC08230F6
:1046000021F4EE24FF24870105C0E114F104010523
:10461000110519F4E0E0F0E096C0628173819FEF2C
:10462000623879070CF05BC022E83FEF261B370B9E
:104630002A3131052CF020E030E040E050E02AC083
:10464000B801A701022E04C0769567955795479546
:104650000A94D2F781E090E0A0E0B0E004C0880FB7
:10466000991FAA1FBB1F2A95D2F70197A109B1096B
:104670008E219F21A023B1230097A105B10521F030
:1046800081E090E0A0E0B0E09A01AB01282B392B4B
:104690004A2B5B2BDA01C9018F779070A070B07044
:1046A00080349105A105B10539F427FF09C0205CCC
:1046B0003F4F4F4F5F4F04C0215C3F4F4F4F5F4F05
:1046C000E0E0F0E02030A0E03A07A0E04A07A0E4F4
:1046D0005A0710F0E1E0F0E079018A0127C0603864
:1046E000710564F5FB01E158FF4FD801C7018F77D1
:1046F0009070A070B07080349105A105B10539F4B7
:10470000E7FE0DC080E490E0A0E0B0E004C08FE3DD
:1047100090E0A0E0B0E0E80EF91E0A1F1B1F17FF93
:1047200005C016950795F794E794319687E016959E
:104730000795F794E7948A95D1F705C0EE24FF24F6
:104740008701EFEFF0E06E2F679566276795902F52
:104750009F77D794DD24D7948E2F8695492F462BAB
:10476000582F5D29B701CA011F910F91FF90EF905B
:10477000DF900895FC01DB01408151812281622F8D
:104780006F7770E0221F2227221F9381892F880FC5
:10479000822B282F30E0991F9927991F11969C93FF
:1047A000119721153105A9F54115510561057105CF
:1047B00011F482E037C082E89FEF13969C938E93AA
:1047C00012979A01AB0167E0220F331F441F551F58
:1047D0006A95D1F783E08C930DC0220F331F441FDD
:1047E000551F12968D919C911397019713969C9348
:1047F0008E931297203080E0380780E0480780E4ED
:10480000580758F314962D933D934D935C93179747
:1048100008952F3F310579F4411551056105710562
:1048200019F484E08C93089564FF03C081E08C93B5
:1048300012C01C9210C02F57304013963C932E93F9
:10484000129783E08C9387E0440F551F661F771FF4
:104850008A95D1F7706414964D935D936D937C9314
:10486000179708951F93DC01FB019C91923008F487
:1048700047C08081823008F443C0943051F41196CF
:104880001C91843099F58181682F70E0611B71095A
:104890003FC0843021F0923031F48230B9F181810F
:1048A000882389F12DC011961C9111978230F1F067
:1048B00081811817D9F412962D913C91139782811A
:1048C00093818217930794F028173907BCF0149648
:1048D0008D919D910D90BC91A02D248135814681B3
:1048E0005781281739074A075B0718F4112341F04D
:1048F0000AC082179307A407B50740F4112319F0E3
:1049000061E070E005C06FEF7FEF02C060E070E033
:10491000CB011F910895629FD001739FF001829F88
:10492000E00DF11D649FE00DF11D929FF00D839F3E
:10493000F00D749FF00D659FF00D9927729FB00DDB
:10494000E11DF91F639FB00DE11DF91FBD01CF01EE
:10495000112408952F923F924F925F926F927F920F
:104960008F929F92AF92BF92CF92DF92EF92FF927F
:104970000F931F93CF93DF93CDB7DEB7CA1BDB0B2B
:104980000FB6F894DEBF0FBECDBF19942A883988C0
:1049900048885F846E847D848C849B84AA84B984D7
:1049A000C884DF80EE80FD800C811B81AA81B981E3
:1049B000CE0FD11D0FB6F894DEBF0FBECDBFED01F7
:0649C0000895F894FFCFFA
:1049C60000000000000000000001020203030303D0
:1049D6000404040404040404050505050505050589
:1049E6000505050505050505060606060606060669
:1049F6000606060606060606060606060606060651
:104A06000606060606060606070707070707070738
:104A16000707070707070707070707070707070720
:104A26000707070707070707070707070707070710
:104A36000707070707070707070707070707070700
:104A460007070707070707070808080808080808E8
:104A560008080808080808080808080808080808D0
:104A660008080808080808080808080808080808C0
:104A760008080808080808080808080808080808B0
:104A860008080808080808080808080808080808A0
:104A96000808080808080808080808080808080890
:104AA6000808080808080808080808080808080880
:104AB6000808080808080808080808080808080870
:084AC6000808080808080808A8
:00000001FF
